:100000000C9427050C94352E0C9444050C9444054F
:100010000C9444050C9444050C9444050C9444053C
:100020000C9444050C9444050C942F290C946B28D3
:100030000C94331E0C9444050C9444050C94440514
:100040000C9444050C9444050C9444050C9444050C
:100050000C9444050C94E61D0C9444050C94440542
:100060000C9444050C9444050C9444050C944405EC
:100070000C9444050C9444050C9444050C944405DC
:100080000C9444050C9444050C9444050C944405CC
:100090000C9444050C9444050C9444050C944405BC
:1000A0000C9444050C9444050C9444059F0A9F0A43
:1000B000D10AD10A430BEB0CEB0CEB0C5F0B3D0CA4
:1000C0004E0C4E0C8226A9264D28A9264D28F52631
:1000D00018274D280E281D286261636B6C696768BC
:1000E000742064656372656173653A2025750A0042
:1000F0006261636B6C6967687420696E63726561C5
:1001000073653A2025750A006261636B6C696768E4
:10011000742064697361626C650A006261636B6C70
:100120006967687420746F67676C653A2025750A83
:10013000006261636B6C6967687420737465703A00
:100140002025750A007267626C69676874206469AB
:100150007361626C65205B454550524F4D5D3A209E
:100160007267626C696768745F636F6E6669672E39
:10017000656E61626C65203D2025750A00726762BC
:100180006C6967687420746F67676C65205B4545B0
:1001900050524F4D5D3A207267626C696768745FB8
:1001A000636F6E6669672E656E61626C65203D20C7
:1001B00025750A0044454255473A206469736162D7
:1001C0006C65642E0A0044454255473A20656E61CD
:1001D000626C65642E0A0054617267657420636FF7
:1001E0006E6E65637465640D0A00546172676574B0
:1001F00020646973636F6E6E65637465642C20742C
:1002000068726F74746C696E6720636F6E6E65637D
:1002100074696F6E20617474656D7074730D0A007B
:100220007267626C696768742064697361626C6587
:10023000205B4E4F454550524F4D5D3A20726762EC
:100240006C696768745F636F6E6669672E656E615F
:10025000626C65203D2025750A004661696C656405
:1002600020746F20657865637574652025730A00B6
:100270000000000000000000000000002B0014003F
:100280001A000800150017000251040016000700AC
:1002900009000A00E1001D001B000600190005000E
:1002A00000000000000001512C00E00000000000F0
:1002B00000000000000000002800130012000C00E5
:1002C00018001C002E0033000F000E000D000B0064
:1002D0002D0038003700360010001100000000002B
:1002E0000000E600E300E500000000000000000060
:1002F0000000000000001E001F002000210022005E
:10030000000000000000500052004F0000000000FC
:10031000000000005100000000000000000001008B
:1003200000000000000000000000000000000000CD
:100330002900270026002500240023002A000000B1
:100340000000310030002F00E50000000000000038
:1003500034003500000000000000E600E300E50086
:1003600000000000000000000000000000003A0053
:100370003B003C003D003E0001000000000000008A
:10038000000000000000000000000000000000006D
:10039000000000000000000000000000000000005D
:1003A0000000000000000000000043004200410087
:1003B00040003F00000000000000BD00A900000058
:1003C000000000000000BE00AA00000000000000C5
:1003D00000000000000000004F6E6573686F743A03
:1003E000206163746976653A2025640A000A002555
:1003F00030325820006B6579626F6172645F72659C
:10040000706F72743A20007267626C69676874205A
:1004100074696D657220656E61626C65642E0A0098
:100420007267626C696768742074696D65722064B4
:10043000697361626C652E0A002223252628292A09
:100440002C2D2F3032333536383A3B3D3E40424337
:100450004547494A4C4E5051535557595A5C5E6076
:1004600062646668696B6D6F71737577797B7D7F88
:1004700081838587898A8C8E90929496989A9C9E87
:100480009FA1A3A5A7A8AAACAEAFB1B3B4B6B8B9A3
:10049000BBBCBEBFC1C2C3C5C6C7C9CACBCCCDCE0B
:1004A000D0D1D2D2D3D4D5D6D7D7D8D9D9DADADBEE
:1004B000DBDBDCDCDCDCDCDDDDDDDDDCDCDCDCDC7A
:1004C000DBDBDBDADAD9D9D8D7D7D6D5D4D3D2D2B9
:1004D000D1D0CECDCCCBCAC9C7C6C5C3C2C1BFBEA1
:1004E000BCBBB9B8B6B4B3B1AFAEACAAA8A7A5A30C
:1004F000A19F9E9C9A98969492908E8C8A898785CB
:1005000083817F7D7B79777573716F6D6B696866A9
:100510006462605E5C5A5957555351504E4C4A497B
:1005200047454342403E3D3B3A3836353332302F23
:100530002D2C2A2928262523226261636B6C69678A
:10054000687420656E61626C650A007267626C692E
:100550006768745F636F6E6669672E737065656444
:10056000203D2025640A007267626C696768745FC9
:10057000636F6E6669672E76616C203D2025640A84
:10058000007267626C696768745F636F6E66696743
:100590002E736174203D2025640A007267626C69C5
:1005A0006768745F636F6E6669672E687565203D66
:1005B0002025640A007267686C696768745F636FFE
:1005C0006E6669672E6D6F6465203D2025640A00A4
:1005D0007267626C696768745F636F6E6669672EC5
:1005E000656E61626C65203D2025640A0072676259
:1005F0006C696768745F636F6E6669672045455014
:10060000524F4D3A0A007267626C696768745F699D
:100610006E6974207267626C696768745F636F6E7D
:100620006669672E6D6F6465203D20302E205772FD
:100630006974652064656661756C742076616C759B
:10064000657320746F20454550524F4D2E0A00723D
:1006500067626C696768745F696E69742065656359
:100660006F6E666967206973206E6F7420656E61B6
:10067000626C65642E0A007267626C696768745FF9
:10068000696E6974207374617274210A0072676202
:100690006C696768745F696E69742063616C6C650E
:1006A000642E0A005B735D000A0025303862003A50
:1006B000200025303258000A722F63203031323347
:1006C000343536370A007267626C69676874206176
:1006D0006E696D6174696F6E207469636B207265F9
:1006E000706F727420746F20736C6176650A0000FD
:1006F000047F3F1F643214643214783C1E1E140AB7
:10070000050A0025303258006C65645F7461736BB4
:100710003A20000631FF0974A1010975150026FF72
:10072000009520750881020976150026FF009520A6
:1007300075089102C005010980A101850319012AEC
:10074000B700150126B700950175108100C0050C92
:100750000901A101850419012AA002150126A002A0
:10076000950175108100C005010906A10105071951
:10077000E029E715002501950875018102950175AD
:100780000881010507190029FF150026FF009506BD
:100790007508810005081901290595057501910263
:1007A000950175039101C05B435D005B445D005B97
:1007B000535D005B575D005B525D0009025B000307
:1007C0000100A0FA09040000010301010009211140
:1007D000010001224000070581030800010904010E
:1007E000000103000000092111010001223200076D
:1007F0000582032000010904020002030000000931
:1008000021110100012222000705830320000107B6
:10081000050303200001120100020000000810CBB4
:10082000562200020102000126034B00650065000C
:10083000620069006F0020004900720069007300C7
:1008400020005200650076002E00200032000000DB
:100850000E034B0065006500620069006F00000038
:100860000403090400010101010101010101020267
:10087000020202020202020303030303030303044E
:100880000404040404040505050505060606060619
:10089000070707070708080808090909090A0A0AD3
:1008A0000B0B0B0C0C0C0D0D0D0E0E0E0F0F0F1075
:1008B00010111111121213131414151516161717FF
:1008C000181819191A1A1B1B1C1D1D1E1E1F20206B
:1008D000212222232424252626272829292A2B2CB5
:1008E0002D2D2E2F30313232333435363738393AD8
:1008F0003B3C3D3E3F404142434445464748494AD0
:100900004C4D4E4F50515354555658595A5B5D5E9D
:100910005F616264656668696B6C6D6F7072737538
:1009200077787A7B7D7E8082838587888A8C8E8F9C
:1009300091939596989A9C9EA0A2A3A5A7A9ABADCA
:10094000AFB1B3B5B7BABCBEC0C2C4C6C9CBCDCFB8
:10095000D1D4D6D8DBDDDFE2E4E7E9EBEEF0F3F566
:10096000F8FAFDFF7267626C69676874206D6F64E6
:1009700065205B4E4F454550524F4D5D3A202575E1
:100980000A007267626C69676874206D6F64652025
:100990005B454550524F4D5D3A2025750A00726700
:1009A000626C6967687420656E61626C65205B4586
:1009B0004550524F4D5D3A207267626C69676874AA
:1009C0005F636F6E6669672E656E61626C65203D60
:1009D0002025750A007267626C6967687420736508
:1009E0007420687376205B4E4F454550524F4D5DE5
:1009F0003A2025752C25752C25750A007267626CC6
:100A0000696768742073657420687376205B454558
:100A100050524F4D5D3A2025752C25752C25750AB1
:100A2000007267626C69676874207261696E626FD8
:100A30007720736574206873763A2025642C2564CA
:100A40002C25642C25750A00FFAA7F55400011242F
:100A50001FBECFEFDAE0DEBFCDBF11E0A0E0B1E016
:100A6000ECEDF0E602C005900D92A63EB107D9F775
:100A700023E0A6EEB1E001C01D92A632B207E1F775
:100A80000E947E210C946C300C940000FF93EF9335
:100A9000E091E601F091E701309709F00995EF91B7
:100AA000FF910895FC018591803011F0EFDFFBCFBD
:100AB0000895FF27E0E230E247FF0CC0419597FF21
:100AC00009C0EDE26095709580959095611D711D4E
:100AD000811D911D27FF02C0219530E350E2AA2716
:100AE000660F771F881F991FAA1FA41710F0A41B59
:100AF00063955A95A9F7AA3008F0A95FA05DAF9356
:100B0000F395611571058105910541F7ED3211F4F9
:100B1000EF93F395F21718F43F93F395FBCF8F9172
:100B2000B5DFFA95E1F70895E991F9918591803063
:100B300021F0853219F0AADFF9CF089520E0E8947A
:100B400055915532C1F3503311F4689455915A338D
:100B500048F4505390F3220F022E220F220F200D43
:100B6000250FF4CF0EF4219589919991533619F3FD
:100B7000533729F1533559F1BC0188279927E89457
:100B80005C3621F48991999168945591543639F4E1
:100B900046EF7EF077FF0DC08FEF9FEF0AC055370D
:100BA0004AE039F0583540E121F0523642E009F090
:100BB0000895FF93EF937DDFEF91FF91B7CFFF9300
:100BC000EF93FC0181918030B9F360DFFBCFFF939D
:100BD000EF9368DFF1CFDF93CF93CDB7DEB72596E4
:100BE000A3DFCF91DF9108951F93CF93DF93CDB70C
:100BF000DEB767970FB6F894DEBF0FBECDBF4B8B45
:100C00005C8B6D8B7E8B8F8B61111092750286E0F1
:100C10009E01235F3F4FD901E82F1D92EA95E9F726
:100C200095E0FE017396D90101900D929A95E1F736
:100C30009C894E895F897B897D879E876F87598BC9
:100C4000488BF901DE01179601900D928A95E1F724
:100C5000CE0107960E94F71581113EC086E0FE0185
:100C60003796DE01119601900D928A95E1F7FF818A
:100C7000E8856A857B856115710531F0EF3F31F4B8
:100C800081E0FF3F19F403C081E001C080E080FDF6
:100C900023C020913A0230E0C9010196877099275C
:100CA00040916B0250E08417950779F1F983EA834C
:100CB0007D836C8396E0929FD001939FB00D1124A9
:100CC000A55CBD4FFE01319601900D929A95E1F71A
:100CD00080933A020E94EC1416E080916B0290918E
:100CE0003A028917F9F0189FC0011124855C9D4FC5
:100CF0000E94F7158823B1F080916B0290E0019675
:100D00008770992780936B02E8CF0E949718109202
:100D10003A0210926B02E4E3F2E086E0DF011D92FA
:100D20008A95E9F767960FB6F894DEBF0FBECDBF80
:100D3000DF91CF911F9108958F929F92AF92BF92B2
:100D4000CF92DF92EF92FF920F931F93CF93DF9397
:100D5000CDB7DEB72A970FB6F894DEBF0FBECDBF72
:100D6000FC010081D18083819481892B39F01FEFB0
:100D7000D11206C091E00F3F19F403C091E001C009
:100D800090E090FD42C77F0185E0DE01169601905C
:100D90000D928A95E1F7F70122818E819F812223AE
:100DA00049F00E946215182F682F8E819F810E9442
:100DB000C51703C00E949817182F2CE3129FF0014B
:100DC000112436E0D39EE00DF11D1124E00FF11D3A
:100DD000EE0FFF1FE059FD4F05911491F70182813D
:100DE000882309F4E2C00E3BFCE51F07E1F058F44C
:100DF0000C3B3CE5130799F00D3B9CE5190709F006
:100E0000D4C080E00DC0003CECE51E0709F45EC0D4
:100E100098F1013C2CE5120709F489C0C6C085E0B1
:100E20000E940220FBC28091AC02982F9695969565
:100E30009695A1F0915E990F990F990F8770892B64
:100E40008093AC02887F91E009F490E08091AC023D
:100E500090FB80F98093AC020E94FD1F8091AB0251
:100E600080FF9DC08091AC028695869586951F92E5
:100E70008F9388ED90E08BC02091AC02822F8695F5
:100E800086958695482F50E04530510554F48F5F84
:100E9000982F990F990F990F822F8770892B809324
:100EA000AC028091AC0281608093AC020E94FD1F75
:100EB0008091AB0280FF73C08091AC0286958695CD
:100EC00086951F928F9380EF90E061C01091AC02E5
:100ED00011708091AB0280FF0CC01F921F938BE1B9
:100EE00091E09F938F930E94EB050F900F900F90CE
:100EF0000F901123C9F08091AC0280FF8FC28E7FCA
:100F00008093AC020E94FD1F8091AB0280FF08C05D
:100F100088E091E09F938F930E94EB050F900F90D4
:100F200080E00E944A1F7AC20E941F2077C28091EF
:100F3000AC02282F2695269526952F5F2F71922F8C
:100F4000990F990F990F8770892B8093AC022630E7
:100F500018F087708093AC028091AC02887F91E09A
:100F600009F490E08091AC0290FB80F98093AC0290
:100F70000E94FD1F8091AB0280FF11C08091AC02E6
:100F80008695869586951F928F9381E391E09F9336
:100F90008F930E94EB050F900F900F900F90809110
:100FA000AC02869586958695BCCF043F2CE512074A
:100FB00049F406E221EE40EE64EF7CE5C7010E94B1
:100FC000BF1E2CC2053F3CE5130708F066C1093D72
:100FD0009CE5190731F407E225EE45EE69ED7CE565
:100FE000EDCF0A3DECE51E0731F408E221E045EEC5
:100FF0006AED7CE5E3CF083DFCE51F0731F406E22E
:1010000021EE41EE68ED7CE5D9CF882309F47AC161
:101010001092AF0204303DE5130758F40B3F8CE506
:10102000180780F4C80182509C45449708F054C1C9
:1010300009C002369DE5190729F0063AEDE51E07BD
:1010400009F04AC10E94CC139093F3028093F202FC
:101050000131FCE51F0709F4C6C008F042C00930A1
:101060003CE5130709F49BC000F505309CE5190722
:1010700009F485C078F40330FCE51F0709F478C053
:1010800008F07AC002301C4509F0F7C08091F202E6
:101090008160F1C007308CE5180709F478C008F0CA
:1010A0007AC08091F2028061E6C00D30ECE51E0747
:1010B00009F487C058F40B302CE5120709F479C005
:1010C00008F07BC08091F20288606FC00F308CE521
:1010D000180709F480C008F082C08091F202877F6F
:1010E000CAC00E3FECE51E0709F471C000F50531DA
:1010F0002CE5120709F485C068F403318CE5180764
:1011000009F475C008F095C00E9497188091F2020A
:101110008F77B1C00C3FECE51E07A9F108F054C071
:101120000B3F1C4509F0A9C08091F30240C002307A
:101130003DE5130709F489C058F401159DE5190729
:1011400009F45AC008F069C08091F30282602FC090
:101150000236FDE51F0709F47EC0063A2DE51207A9
:1011600009F483C003301D4509F087C060E06EC0FC
:101170008091F20282607FC08091F20216C080915D
:10118000F202886078C08091F30282604FC0809143
:10119000F202806270C08091F20280646CC00E9492
:1011A00097188091F202806866C0846064C0816094
:1011B0003DC08091F2028E7F5EC08091F2028D7FF1
:1011C0005AC08091F20216C08091F30218C080913B
:1011D000F3028D7F2BC08091F2028F7E4CC08091F4
:1011E000F2028F7D48C08091F2028F7B44C08091D3
:1011F000F202877F8B7F3FC08091F3028D7F8E7FCD
:1012000015C08091F20282FB222720F991E09227FB
:1012100090FB82F990FB83F92EC08091F302982F06
:10122000909591708E7F892B90FB81F98093F302CA
:1012300024C00E9497188091F20287FB222720F990
:1012400091E0922790FB87F916C061E08EE090E074
:101250000E946A2F12C08091F20284FB222720F99B
:1012600091E0922790FB84F906C08091F202982FBA
:10127000909590FB80F98093F2026091F2021091B8
:10128000F30284E090E00E946A2F612F82E290E0F6
:101290000E946A2F0E949718C1C0063F2CE51207D2
:1012A00031F406E221EE42EE66EF7CE587CE063FA2
:1012B0003CE5130730F407E225EE44EE65EF7CE5EC
:1012C0007DCE073F9CE5190709F09FCE07E225EE8A
:1012D00046EE67EF7CE572CE0631ECE51E0721F5A0
:1012E0008091E9018A7A91E009F490E09093E80115
:1012F000882311F065E301C069E284E092E00E9476
:10130000691E0FC00631FCE51F0709F068C0809117
:10131000E801882309F49CC365E384E092E00E941D
:101320005C1E0E9466147AC00F3DFCE51F0709F49D
:1013300047C040F401153CE5130799F001301C4506
:1013400061F1A1C00C359DE5190709F444C00D35C4
:10135000EDE51E07C1F10B351D4509F094C081E094
:101360003BC00E9497180FEF14E32CE0015010408F
:101370002040E1F700C0000087E797E7909301085D
:10138000809300089AE088E10FB6F894A8958093BE
:1013900060000FBE90936000FFCF8091AB02982F4A
:1013A0009095917090FB80F98093AB02992319F08E
:1013B00086EC91E002C084EB91E00E9452052EC0C1
:1013C0000E94DD132BC08091F30282FB882780F9F5
:1013D00091E0892701C080E00E943D1854C08091AF
:1013E000E90182720D3C9CE5190709F4EEC3C8F1CE
:1013F000023D8CE5180709F4F8C308F45BC3053D0A
:101400008CE5180709F4F7C308F467C3063D2CE51B
:10141000120709F4F5C30E351D45A9F580916C023C
:10142000877009F4F2C3F7018281882309F4EDC3C0
:101430008091F30282FDE9C382E02A960FB6F89408
:10144000DEBF0FBECDBFDF91CF911F910F91FF90F7
:10145000EF90DF90CF90BF90AF909F908F900C94C3
:101460002018073CFCE51F0709F49BC308F000C3E4
:10147000043C3CE5130709F48AC308F0EBC2033CC3
:101480001C4509F436C3F70182810081D18088238D
:1014900059F0802F9D2D0E946215182F682F802FE4
:1014A0009D2D0E94C51705C0802F9D2D0E94981765
:1014B000182F2CE3129FF001112436E0D39EE00D8B
:1014C000F11D1124E00FF11DEE0FFF1FE059FD4F3C
:1014D000859194910E9443128C01982EF701D2803D
:1014E000A580A2943FE0A32280916C028770B9F09E
:1014F000DD20A9F0812F807F803421F080E2800FF1
:10150000883068F08091F30282FD09C082E00E9479
:10151000201880916C028770CC24C3948111C12C57
:10152000B12EB2949FE0B9228B2D90E08C309105C2
:1015300008F051C2FC01EA5AFF4F0C941230812F7F
:10154000807F1F70882311F01295107FDD20B9F085
:10155000112309F42DC280E2800F883010F0911021
:1015600006C08091E901182B1093E90105C0809114
:101570007502182B109375020E94661419C2802FF1
:101580000E94B318112309F426C2005E083078F1D6
:10159000992069F1109580917502182310937502B6
:1015A00029C0812F807F1F70803211F01295107F2B
:1015B000992021F0F1E09F16D9F149C08091F30202
:1015C00082FF1BC0DD2069F0112339F08091E90111
:1015D000182B1093E9010E94661480E00E940A19FA
:1015E000FAC180E00E94B318112309F4F4C1812FDD
:1015F0000E945F140E946614EEC1DD2081F080918C
:10160000EA01AA2051F001E0A01207C0182B181718
:1016100009F4E1C11093EA01DEC1812B10C0AA20B8
:1016200021F021E0A21609F4D6C10E94591427C066
:10163000DD2041F035E03A1508F4CDC1812F0E943C
:10164000A918C9C184E08A1508F4C5C118C0DD20F5
:1016500049F0AA2099F3F701858180FFA9C18F7015
:101660008583ECCFAA2059F0093309F0B1C1FFEF0F
:1016700017EE23E0F15010402040E1F7A7C1812F81
:101680000E94A218A8C1812F86958695837019F0B3
:10169000813059F0A0C1DD2019F0C801937002C05B
:1016A00080E090E00E94991E9CC1DD2019F0C801E5
:1016B000937002C080E090E00E94831E92C1812F4F
:1016C000837009F069C0D1108AC1902F92959695C8
:1016D0009770990F990F802F8F70882E912CA12CC5
:1016E000B12C092E04C0880C991CAA1CBB1C0A949E
:1016F000D2F704FF12C04FE050E060E070E004C099
:10170000440F551F661F771F9A95D2F7DB01CA0158
:1017100080959095A095B09503C080E090E0DC01A5
:1017200016951695412F4370423019F1C8F4009177
:10173000EB011091EC012091ED013091EE0141306F
:1017400059F088299929AA29BB29BC01CD01602318
:101750007123822393230AC0802A912AA22AB32AC2
:10176000BC01CD01682979298A299B290E948D18FD
:1017700036C188299929AA29BB290091EB0110912A
:10178000EC012091ED013091EE01BC01CD0160270B
:10179000712782279327EACFDD2019F0812F8170EE
:1017A00001C08695882309F41AC1902F92959695C9
:1017B0009770990F990F802F8F70882E912CA12CE4
:1017C000B12C092E04C0880C991CAA1CBB1C0A94BD
:1017D000D2F704FF12C04FE050E060E070E004C0B8
:1017E000440F551F661F771F9A95D2F7DB01CA0178
:1017F00080959095A095B09503C080E090E0DC01C5
:1018000016951695412F43704230D9F068F5009136
:10181000EE021091EF022091F0023091F10241307E
:1018200059F088299929AA29BB29BC01CD01602337
:101830007123822393231EC0802A912AA22AB32ACD
:1018400013C088299929AA29BB290091EE02109179
:10185000EF022091F0023091F102BC01CD0160272E
:1018600071278227932706C0BC01CD0168297929F9
:101870008A299B290E94F117B2C01F70DD2039F020
:10188000812F0E946C18802F0E94A918A8C0802F59
:101890000E94A218812F0E94FB17A1C0802F32EF57
:1018A000931609F443C0391538F090EF991659F0A2
:1018B000E1EF9E16B1F177C0F3EF9F16F1F124EF3F
:1018C000921659F170C0DD2019F134E03A1508F490
:1018D00082C01F7181E090E0A0E0B0E0AC01BD01EA
:1018E00004C0440F551F661F771F1A95D2F78091C9
:1018F000EE029091EF02A091F002B091F1028A0104
:101900009B01082719272A273B27C901B80129C0AD
:1019100025E02A1508F45FC0DCCF8091F30282FF36
:1019200023C0DD2029F0812F8F7130C0DD20D9F355
:10193000812F8F710E94FB174EC0DD2079F01F713F
:1019400081E090E0A0E0B0E0BC01CD0104C0660FF2
:10195000771F881F991F1A95D2F703C060E070E0C7
:10196000CB010E94F11737C0DD2099F01F71812F44
:101970000E946C188091F30282FD07C038E0139F2B
:10198000C0011124836080936C02812F0E946C1827
:1019900022C081E00E94201881E08A15E0F482E0F4
:1019A0000E94201818C0DD2029F0AA2009F4BBCF1E
:1019B000802F14CEAA2009F4BBCF893349F49FEFBE
:1019C000E7EEF3E09150E040F040E1F700C00000A6
:1019D000802F0E94B31888EF8B0D843010F40E9482
:1019E000AF1ECC20A9F080916C0280FD11C0F701E0
:1019F00012828595859585950E946C18C7010E9475
:101A00009C0680916C028595859585950E94FB17B3
:101A100085E0F701DE01119601900D928A95E1F7BC
:101A200089819A810E9498179A810CE3809FF00126
:101A3000112416E0919FE00DF11D11248981E80F1A
:101A4000F11DEE0FFF1FE059FD4F85919491DDC010
:101A500069E263CC053CFCE51F0709F49DC0063C28
:101A60001C4509F010CD44EF5CE26DEF7CE2B1C0A3
:101A70000A3C3CE5130709F49EC070F4083CECE511
:101A80001E0709F493C0093C1C4509F0FCCC48EE44
:101A90005CE26CED7CE29DC00B3C2CE5120709F486
:101AA0008FC00C3C1C4509F0EECC46EE5AE267EFC5
:101AB0007AE28FC00F3CECE51E0709F490C008F4F1
:101AC0008BC0003D2CE5120709F48CC0013D1C457C
:101AD00009F0D9CC6EE089E090C0033DECE51E072B
:101AE00009F486C0043D1C4509F0CDCC61E088E1D5
:101AF00089C08091AB0280FF10C08091A6028095C2
:101B000081701F928F938DE791E09F938F930E9436
:101B1000EB050F900F900F900F908091A60280FF21
:101B200033C08E7F8093A6026091A6027091A702B7
:101B30008091A8029091A9020E94D42A8091AB02C0
:101B400080FF0FC08091A60281701F928F9385E461
:101B500091E09F938F930E94EB050F900F900F9051
:101B60000F900E94892080917E02816080937E0286
:101B70008FEF90E7E2E081509040E040E1F700C055
:101B800000000E945A2A4ACC0E94652D47CC41E8A9
:101B90005DE26AE87DE21DC04AE85DE261E87DE25F
:101BA00018C04DEF5CE264EF7CE213C04CED5CE2E8
:101BB00068EE7CE20EC044EC5CE260ED7CE209C0C1
:101BC00040ED5CE264EC7CE204C047EF5AE266EE72
:101BD0007AE20E94832022CC61E081E013C065E0BC
:101BE00082E00BC068E086E008C064E18FE005C0D9
:101BF00067E185E102C062E289E10E9471200ECCBA
:101C000061E083E20E94062D09CC2A960FB6F89473
:101C1000DEBF0FBECDBFDF91CF911F910F91FF901F
:101C2000EF90DF90CF90BF90AF909F908F900895EE
:101C30008295982F937344E0949F900111248C7C9B
:101C400086958695282B822F8575880F2A7A26956A
:101C5000822B08959091F20292FF0DC0282F2871D7
:101C6000283019F4877F846006C0282F247124301F
:101C700011F48B7F886093FF0DC0282F28712831C5
:101C800019F4877E846106C0282F2471243111F451
:101C90008B7E88612091F30220FF0DC0382F3871B0
:101CA000383019F4877F816006C0382F31713130A8
:101CB00011F48E7F886021FF0DC0282F28712831F4
:101CC00019F4877E816106C0282F2171213111F41A
:101CD0008E7E886194FD877E0895EF92FF921F9318
:101CE000CF93DF9300D000D000D0CDB7DEB77B011B
:101CF00080E090E00E94DB2E882309F463C04091CD
:101D0000160150E04115510511F041E050E060919D
:101D100017017091180161547D4FCE0106960E9403
:101D20006330409100025091010260910202709173
:101D300003022FB7F8948091B7029091B802A09156
:101D4000B902B091BA022FBF841B950BA60BB70B3B
:101D500084369105A105B10538F480EC92E00E942B
:101D60005A259E81891781F181E090E00E94DB2E47
:101D7000182F882391F040911E0150E04630510504
:101D800010F045E050E060911F0170912001615416
:101D90007D4FCE0101960E94633080EC92E00E945C
:101DA0005A2591E02E81281390E0192311F10E9409
:101DB0001B1E6093000270930102809302029093B5
:101DC00003020CC010E001C011E085E0E0ECF2E09D
:101DD000DE01119601900D928A95E1F7112349F0E9
:101DE00085E0FE013196ABEFB1E001900D928A954E
:101DF000E1F785E0EBEFF1E0D70101900D928A95D4
:101E0000E1F7812F26960FB6F894DEBF0FBECDBF47
:101E1000DF91CF911F91FF90EF9008958F929F9245
:101E2000AF92BF92CF92DF92EF92FF920F931F93E8
:101E3000CF93DF937C015B01942E852E6901809105
:101E4000FA018A3018F001E010E002C00AE010E068
:101E5000C1E0D0E0F894B501C701F6010995789486
:101E6000811129C021960C171D078CF0CC9F900181
:101E7000CD9F300D300D112480E090E045E34A9570
:101E8000F1F70000019628173907C1F7E3CF9091C9
:101E9000AB02892F817090FF0FC08F929F928AE5CD
:101EA00092E09F938F930E94EB050F900F900F90FD
:101EB0000F9080E001C081E0DF91CF911F910F91E1
:101EC000FF90EF90DF90CF90BF90AF909F908F905A
:101ED00008958F929F92AF92BF92CF92DF92EF922E
:101EE000FF920F931F93CF93DF93FB01808091802C
:101EF000A280B3809FB7F894C090B702D090B80288
:101F0000E090B902F090BA029FBFC818D908EA0859
:101F1000FB08F4E6CF16D104E104F10410F44423E5
:101F200041F17B01C82F880FDD0B01151105A9F0C8
:101F3000FE0183E0EE0FFF1F8A95E1F7ED5EFE4F95
:101F40008181928181549D4F408150E00417150793
:101F500008F4A801B9010E946330CE010E94DB2E73
:101F6000882341F00E941B1EF701608371838283E6
:101F7000938381E0DF91CF911F910F91FF90EF90BC
:101F8000DF90CF90BF90AF909F908F9008958091F9
:101F9000F901811118C08091D80080618093D80028
:101FA0008AE18A95F1F700C08091D90080FD02C0D6
:101FB00082E001C081E08093F901823021F40E9427
:101FC000AF2810921C0381E09091F901913009F043
:101FD00080E00895F894E82FE295EF70F0E031A1E9
:101FE000282F2F7081E090E001C0880F2A95EAF732
:101FF000982F9095932391A392A1892B82A37894F3
:1020000008955F926F927F928F929F92AF92BF924C
:10201000CF92DF92EF92FF920F931F93CF93DF93B4
:10202000CDB7DEB72F970FB6F894DEBF0FBECDBF8A
:10203000AE014F5F5F4F7A018AE0DA011D928A9507
:10204000E9F707EA11E06A018CEA682E81E0782E50
:10205000AA24A394B12C22EB822E21E0922EF80127
:1020600080818F3F09F440C0F894E82FE295EF702B
:10207000F0E021A18F70A50102C0440F551F8A9581
:10208000E2F7CA01922F982B91A392A18095892300
:1020900082A3789400C0ECEAF1E0512C31E0219168
:1020A0002F3F89F0A22FA295AF70B0E090968C914F
:1020B00090E02F7002C0959587952A95E2F780FDF4
:1020C00002C0832F01C080E0582A330F8E169F066E
:1020D00031F7D8018C918F3F11F00E94EA0FB0EADE
:1020E000BA95F1F7F60150820F5F1F4FFFEFCF1A3D
:1020F000DF0A6016710609F0B2CF4AE050E0B7017E
:1021000082EE92E00E9456308C01892B41F08AE0E9
:10211000F701A2EEB2E001900D928A95E1F7F090FE
:10212000ED020115110549F081E08093F1010E9453
:10213000271E9093F0018093EF018091F101882395
:10214000B9F08091EF019091F0010E940C1E05976B
:1021500078F0A2EEB2E0EF2DF0E0EB50FD4F87EE0D
:1021600092E02D9121938A179B07D9F71092F101E4
:102170000115110509F0FAC00E94C70FE091ED02A8
:10218000882309F449C07E012BE0E20EF11C85E0B2
:10219000D7011D928A95E9F70E2F10E00B501D4FC5
:1021A000D090FA01B9E0BD1560F02DE63EE049E4BB
:1021B00051E0B701C8010E940E0F882309F4F7C04F
:1021C0000AC08091F2019091F3010E940C1E843F9D
:1021D000914058F705C126E231E246E551E0B701EA
:1021E000C8010E940E0F882309F4E1C02FEF30E2EE
:1021F00041E651E0B701C8010E940E0F882309F49F
:10220000D6C024EC30E24BE651E0B701C8010E9491
:102210000E0F8111AEC0CBC0F0E0EB50FD4FF89433
:1022200085E0A0ECB2E001900D928A95E1F780EC98
:1022300092E00E945A258093BF027894F894C0904F
:10224000C502D090C602E090C702F090C80280910B
:10225000F4019091F501A091F601B091F701C81633
:10226000D906EA06FB06D1F0C092F401D092F5013E
:10227000E092F601F092F7010E94C70F81110EC0A3
:102280000E941B1EC61AD70AE80AF90AC092DE028B
:10229000D092DF02E092E002F092E1027894F894AA
:1022A0008091C9020E944A1F7894F8948091D102CB
:1022B000882309F459C080FF34C09091CA028091EC
:1022C000A60290FF09C081608093A60260E0892F7A
:1022D00086950E94062D25C08E7F8093A602809150
:1022E000AB0280FF0CC01F921F9280E292E09F938E
:1022F0008F930E94EB050F900F900F900F900E940C
:10230000892080917E02816080937E02BFEFE0E7AA
:10231000F2E0B150E040F040E1F700C000000E9460
:102320005A2A8091D10281FF09C020E04091CD025C
:102330006091CC028091CB020E94CF2B8091D10280
:1023400082FF09C08091D002882319F00E949D204D
:1023500002C00E9489208091D10283FF03C081E0E6
:10236000809379021092D102789452C001E010E07B
:102370004FC029E02D1540F48091AB0280FF04C0CE
:1023800087ED91E00E9452051092FA018091EC02D3
:1023900090E045E050E0B7018B509D4F0E945630D1
:1023A00021E02093F801892B31F500E031C08091C4
:1023B000FA018F3F19F08F5F8093FA018091FA0143
:1023C0008A3020F30E94271E9093F3018093F2013C
:1023D0008091AB0280FF04C08AEE91E00E9452051A
:1023E0008091F801882309F385E0D7011D928A9531
:1023F000E9F71092F801A091EC02B0E0AB50BD4FAC
:1024000085E0FE013B9601900D928A95E1F701E08F
:10241000802F2F960FB6F894DEBF0FBECDBFDF9191
:10242000CF911F910F91FF90EF90DF90CF90BF90D1
:10243000AF909F908F907F906F905F9008950F93D3
:102440001F930E94C70F882321F01F910F910C94B6
:102450001B1E0E941B1E0091DE021091DF022091C4
:10246000E0023091E102600F711F821F931F1F91E4
:102470000F9108950E94C70F81110C94271E0E948E
:102480001F12CB010895CF93DF938238910569F134
:10249000B0F48133910509F46FC048F48932910595
:1024A00009F465C08A32910509F46BC08AC085338E
:1024B000910509F457C089339105B9F082C0833E74
:1024C000910571F138F4803E9105B1F0823E91059D
:1024D00011F177C0863E9105B9F1873E9105C9F1AA
:1024E000843E910509F06DC024C02091F20220FDC8
:1024F00053C021FD51C065C08091F20280FD46C0ED
:102500008091F30280FF48C08091F20284FD3FC1B8
:1025100083EE90E03EC18091F20282FF3AC0F4CF98
:102520008091F20282FD35C08091F30280FD34C0BB
:10253000EBCF8091F30281FF35C08091F20284FDE0
:1025400026C187EE90E025C18091F20283FF27C06B
:10255000F4CF8091F20283FD22C08091F30281FDCD
:1025600021C0EBCF8091F20285FD1FC021C0809178
:10257000F20285FD1DC019C08091F20286FD1BC0CC
:102580001DC08091F20286FD19C015C089E390E05C
:1025900000C182EE90E0FDC080EE90E0FAC086EED1
:1025A00090E0F7C084EE90E0F4C089E290E0F1C0E2
:1025B00085E390E0EEC08AE290E0EBC081E390E03A
:1025C000E8C0811532E5930708F069C0811541E53F
:1025D000940728F0982F8827816F906ADAC0883E88
:1025E000910568F5803E910508F0D3C0883A9105C1
:1025F000B8F4853A910548F0855AE82FF0E0EC5898
:10260000FE4F808190E09064C4C08130910509F450
:10261000BBC008F4BCC08430910508F4B8C0B9C090
:102620008F3B910508F0B3C0885AE82FF0E0EE0F19
:10263000FF1FE958FE4F808191819464AAC08115E3
:1026400020E59207F0F09C0174E0369527957A9585
:10265000E1F7922F9370482F437021E030E002C0E1
:10266000220F331F4A95E2F73C68392B8F70982F61
:102670009695969540E2949FC0011124822B932B4E
:1026800088C0811530E4930718F09F70906A81C06C
:102690009C013A9521153F4108F47BC078C0EC01BC
:1026A000C11586E5D807E8F5C11525E5D20748F03C
:1026B0008C2F0E942A0E8F7190E0982F88279062AD
:1026C00068C0C11534E5D30728F09C2F8827846F94
:1026D000906A5FC0AE01437055272C2F2695269532
:1026E000C115D34578F481E090E002C0880F991FAE
:1026F0004A95E2F740E2249F90011124822B932B0C
:102700009C6847C081E090E002C0880F991F4A95FD
:10271000E2F740E2249F90011124822B932B9A68C8
:1027200038C0C1152AE5D207F8F4C11539E5D30739
:1027300090F08C2F8F700E942A0E94E0D695C7954A
:102740009A95E1F7CF70D0E0DC2FCC27D0699E01BD
:10275000282BC9011EC0C11548E5D407C0F09C2F25
:102760008827806F906A15C0CE01905681159042DF
:1027700070F48D2F8F710E942A0E282F2F71CE0199
:1027800099279062922B05C081E090E002C080E022
:1027900090E0DF91CF910895CF9384E090E00E9484
:1027A000562FC82F82E290E00E94562F2C2F30E047
:1027B000A901582BCA01CF91089569EE7EEF80E000
:1027C00090E00E94882F60E082E090E00E946A2FF3
:1027D00060E083E090E00E946A2F1092EB0110927B
:1027E000EC011092ED011092EE0160E084E090E0C7
:1027F0000E946A2F60E082E290E00E946A2F60E00F
:1028000085E090E00E946A2F60E086E090E00E9400
:102810006A2F6FEF87E090E00E946A2F40E050E05F
:10282000BA0188E090E00E947C2F60E08DE090E0AB
:102830000E946A2F40E050E0BA0188E190E00E94D7
:102840007C2F60E087E190E00E946A2F40E050E03A
:10285000BA018CE190E00E947C2F60E070E080E2A1
:1028600090E00E94882F40E050E0BA0188E190E0BB
:102870000E947C2F0E941F2083E00E9402200E9461
:10288000652D21E04FEF6FEF80E00E94CF2B61E0DC
:102890008BE00E94062D40E050E0BA018FE090E00E
:1028A0000E947C2F40E050E0BA0183E190E00C945C
:1028B0007C2F8091EA0181111092EA0108958095A0
:1028C0009091E90189238093E9010895EF92FF92A5
:1028D0000F931F93CF939091E90180917502982BEC
:1028E000909304028091EA01882389F0892B8093D8
:1028F0000402E6E0F2E097E080E0915029F02191B7
:102900002223D9F38F5FF9CF81110E94591448E037
:1029100050E06DE672E084E092E00E945630892B30
:1029200009F448C088E0E4E0F2E0ADE6B2E00190EE
:102930000D928A95E1F7E091B202F091B3023097DF
:10294000C9F10280F381E02D84E092E00995809145
:10295000AB0282FF2FC080FF04C085EF93E00E948E
:10296000520504E012E0C8E08FEEE82E83E0F82E76
:102970008091AB0280FF0CC0F80180811F928F9381
:10298000FF92EF920E94EB050F900F900F900F9027
:10299000C1500F5F1F4FC111EBCF8091AB0280FF81
:1029A00009C08DEE93E0CF911F910F91FF90EF90B2
:1029B0000C945205CF911F910F91FF90EF900895C5
:1029C00080E090E00E94991E80E090E00E94831ECB
:1029D000109275020C94661480916B0290913A02E9
:1029E000891719F08F5F8770FBCF08950F931F939E
:1029F000CF93DF938091390282958F7009F05DC08B
:102A000080913602882309F458C080916B0210919E
:102A10003A026091340270913502C0913702D09130
:102A2000380291E06F3F09F090E0292F06E081170E
:102A300009F443C0209721F07F3F21F030E003C02C
:102A400031E001C0322F90E030FD34C0089FF0012A
:102A5000099FF00D1124DF01A55CBD4F11963C913B
:102A60001197371327C03C91361324C012963C911E
:102A7000129731111FC013964D915C9114974C1B06
:102A80005D0B483C5105B0F4809139028F70806134
:102A900080933902E05CFD4F80818F70806180837C
:102AA00084E392E00E949C06DF91CF911F910F91E9
:102AB0000C94EC1401968770BACFDF91CF911F91DF
:102AC0000F9108958F929F92AF92BF92DF92EF92F3
:102AD000FF920F931F93CF93DF938090EE0290901D
:102AE000EF02A090F002B090F1024091EB01509102
:102AF000EC016091ED017091EE01842A952AA62ADD
:102B0000B72ACFE1D0E026E0929F700111249CE328
:102B1000D92E082F10E0D501C4010C2E04C0B695A3
:102B2000A795979587950A94D2F780FD04C02197C1
:102B300090F780E014C0DC9EF001DD9EF00D1124C2
:102B4000EE0DFF1DE00FF11FEE0FFF1FE059FD4FCF
:102B5000859194910E944312019749F38C2FDF9144
:102B6000CF911F910F91FF90EF90DF90BF90AF90AA
:102B70009F908F900895CF93DF93EC010E94621590
:102B80002CE3829FC0011124FC0126E0D29FE00DBE
:102B9000F11D1124EC0FF11DEE0FFF1FE059FD4F49
:102BA000859194910E944312DF91CF910895FC0189
:102BB000808191810E94BB1592959F70963079F02B
:102BC00010F4925001C09A50923068F4803F69F03E
:102BD00018F4883E40F409C0843F29F406C0883EBA
:102BE00020F0813F11F080E0089581E008959F92E8
:102BF000AF92BF92CF92DF92EF92FF920F931F930B
:102C0000CF93DF93CDB7DEB761970FB6F894DEBFF1
:102C10000FBECDBF8C0185E0F801DE011D9601904D
:102C20000D928A95E1F7F801E2809091340260916B
:102C3000350240913702509138024115510531F06B
:102C40006F3F31F481E09F3F19F403C081E001C080
:102C500080E0F82FF1709F2E80FD1AC1F8013081BD
:102C60002181C380D48084E3A82E82E0B82EF09026
:102C70003602F601E41BF50BFF2009F4C6C0809173
:102C80003902E83CF10508F091C0482F407F09F077
:102C900050C0621311C093130FC0FE2CE1100CC082
:102CA0008F70806180933902C5010E949C068091DB
:102CB0003902F801858329C1CD2831F02F3F31F445
:102CC00081E03F3F19F403C081E001C080E080FD56
:102CD00003C081E08E2502C080E090E0F82FF17003
:102CE000FF2E80FF1CC080916B0240913A0256E09B
:102CF000841709F4E8C090E0589FF001599FF00D47
:102D00001124E55CFD4F6181261306C060816313C9
:102D100003C06281E61203C001968770E9CFFE2CE2
:102D2000EE2009F4F2C0809139028160809339026B
:102D300049C0621306C0931304C0E11002C0F80139
:102D400086C0C8010E94D715882351F1EE2041F1B9
:102D500020913902822F82958F7090E0029774F053
:102D6000809134029091350298878F831986DB8693
:102D7000CA862C87CE0107960E949C0686E0F80141
:102D8000A4E3B2E001900D928A95E1F70E94F61457
:102D90000AC06217C9F0C8010E94D71581111EC070
:102DA000C8010E949C06FF24F394AFC0482F407FC7
:102DB00081F784E392E00E949C0686E0F50111927F
:102DC0008A95E9F7F12CA1C09313E5CFE110E3CF89
:102DD000F8018583C8010E949C0654C0EE2001F3CF
:102DE00020913902822F82958F7090E0029734F201
:102DF00080913402909135029A8389831B82DD820F
:102E0000CC822E83CE010196B7CFE83CF105D0F5F8
:102E1000FE2CEE2029F2621327C0931325C02091C7
:102E2000390220FD18C0822F82958F70482F50E004
:102E30004115510581F0F80125834F30510541F0CE
:102E40008F5F982F9295907F822F8F70892B85832B
:102E5000C8010E949C0686E0F801A4E3B2E001905C
:102E60000D928A95E1F751C0C8010E94D7158111D2
:102E700085CF80913902816080933902C8010E9418
:102E80009C0643C086E0F50111928A95E9F73DC0A2
:102E9000EE2009F485CFC8010E94D715F82E8823AB
:102EA00009F47ECF86E0F801A4E3B2E001900D9230
:102EB0008A95E1F780913402909135020E94BB150A
:102EC0000E94F61422C03D872E878D859E850E9424
:102ED000BB15292F22952F70223028F49F7039F0CE
:102EE000811105C00BC0243028F49F7049F4805E26
:102EF000883020F0C8010E949C069F2CF92C05C048
:102F0000F8019581907F99F7F9CF8F2D61960FB6D3
:102F1000F894DEBF0FBECDBFDF91CF911F910F910F
:102F2000FF90EF90DF90CF90BF90AF909F9008956B
:102F3000292F220F920F990F890F682F669566959A
:102F40006695982F977085E0689FB001112440E046
:102F500050E080E0FB01E40FF51FE45FFD4F2081AE
:102F600030E0092E02C0369527950A94E2F72170C9
:102F70003327042E01C0220F0A94EAF7822B4F5FF9
:102F80005F4F4530510531F70895292F220F920FD9
:102F9000990F890FE82FE695E695E695877051E041
:102FA00001C0550F8A95EAF785E0E89FF0011124EA
:102FB000E45FFD4F20E030E070E04081CB01022E65
:102FC00002C0969587950A94E2F7817081958427CF
:102FD0008523842781932F5F3F4F2530310569F783
:102FE00008956093EE027093EF028093F002909345
:102FF000F1020C94E0140F931F9341E050E060E065
:1030000070E004C0440F551F661F771F8A95D2F7E2
:1030100040955095609570958091EE029091EF02E9
:10302000A091F002B091F1028A019B0108231923BB
:103030002A233B23C901B8011F910F910C94F1176A
:1030400020916C028095822380936C02982F977058
:1030500099F430E0482F082E000C550B2417350743
:1030600059F09091F30292FD07C08595859585955D
:103070000E94FB1710926C020895CF93DF93C091CA
:10308000F302C2FB992790F9981719F1D82F80FB0A
:10309000C2F9C093F3026091F20284E090E00E94D2
:1030A0006A2F6C2F82E290E00E946A2F82E00E94D9
:1030B00020188091AB0280FF0CC01F92DF9388ED37
:1030C00093E09F938F930E94EB050F900F900F90CA
:1030D0000F90DF91CF9108950F931F9341E050E03F
:1030E00060E070E004C0440F551F661F771F8A958B
:1030F000D2F78091EE029091EF02A091F002B09190
:10310000F1028A019B01082B192B2A2B3B2BC901A9
:10311000B8011F910F910C94F1176093EB0170931C
:10312000EC018093ED019093EE010C94E014109269
:10313000E90186E0E6E0F2E0DF011D928A95E9F719
:103140000C94E014882321F00E945F140C94661400
:103150000895882339F09091E901892B8093E90142
:103160000C9466140895882309F453C0682F82389C
:1031700069F40E94AF1E81FF4CC069E384E092E0D5
:103180000E94691E0E94661469E30EC0833891F4A0
:103190000E94AF1E80FF3DC063E584E092E00E9484
:1031A000691E0E94661463E584E092E00E945C1E42
:1031B0000C946614843869F40E94AF1E82FF29C003
:1031C00067E484E092E00E94691E0E94661467E44E
:1031D000EBCF8CEF860F813A38F380E2860F883090
:1031E00048F4677081E001C0880F6A95EAF70E9491
:1031F0005F14DECF8BE5860F833020F480E090E013
:103200000C94991E685A673120F480E090E00C9489
:10321000831E0895CF93882309F496C0C82F82385F
:10322000B1F40E94AF1E81FD8FC069E384E092E09B
:103230000E94691E0E9466142FEF81EE94E02150D7
:1032400080409040E1F700C0000069E317C0833878
:10325000E1F40E94AF1E80FD77C063E584E092E058
:103260000E94691E0E9466142FEF81EE94E02150A7
:1032700080409040E1F700C0000063E584E092E008
:103280000E945C1ECF910C9466148438B1F40E94A5
:10329000AF1E82FD59C067E484E092E00E94691E7F
:1032A0000E9466142FEF81EE94E021508040904000
:1032B000E1F700C0000067E4E1CF8CEF8C0F813AAA
:1032C00080F4E6E0F2E08CE092E02191C217A1F1F7
:1032D0008E179F07D1F76C2F84E092E00E94691E41
:1032E000D1CF80E28C0F883068F4C77081E090E025
:1032F00001C0880FCA95EAF79091E901892B809364
:10330000E901C0CFEBE5EC0FE33040F4F0E0EC581E
:10331000FE4F808190E0CF910C94991EC85AC7311E
:1033200098F4EC2FF0E0EE0FFF1FE958FE4F80817C
:103330009181CF910C94831E6C2F84E092E00E94C7
:103340005C1E0E946614C7CFCF910895089508951A
:1033500008958091110308959FB7F89410920D037A
:103360009FBF90911C03943009F057C09091E900E1
:103370009F703091EC00232F217030FD20E8922BBC
:1033800023E02093E9002091EB0020FF43C020912F
:10339000EE0027FF3FC02091BE02222321F02091A2
:1033A000E80025FF37C01092BE0226E03091E80009
:1033B00035FD15C030911C03343061F53091EB00C0
:1033C00035FD28C0215021F481E08093BE0222C047
:1033D000EFE9FFE03197F1F700C00000E7CF8093FD
:1033E000F1008091E80085FD0AC08091E80080FF2F
:1033F000FCCF8091E8008E778093E80006C08FB7FD
:10340000F89421E020930D038FBF9F709093E90003
:1034100080E008959F709093E9008FEF0895809366
:10342000BB027093BD026093BC0280911C03843088
:1034300001F582E08093E9008FEF9091E8008150E0
:1034400095FD06C095ED9A95F1F700008111F5CF35
:103450008091E80085FF0DC040E050E063E070E03F
:103460008BEB92E00E9471258091E8008E7780932B
:10347000E8000895BC0184E00C940F1ABC0183E0BD
:103480000C940F1ACF93DF9321E02093E9002FEFE4
:103490003091E800215035FD06C035ED3A95F1F741
:1034A00000002111F5CF2091E80025FF14C0EC01A8
:1034B00040E050E068E070E00E9471258091E800F3
:1034C0008E778093E80088E0FE01A2E1B3E00190EE
:1034D0000D928A95E1F7DF91CF9108950F931F9395
:1034E000CF93DF93EC0100E010E080911201282FD0
:1034F00030E00217130724F5909110019801290F6D
:10350000311DA901440F551F240F351F2E573D4F64
:10351000869590E04C81081719071CF4442331F07C
:1035200002C0411103C04091A90201C040E0609176
:10353000A8028091A7020E941F2B0F5F1F4FD5CFBB
:103540000E945A2A8C8190E00196817099278C8381
:10355000DF91CF911F910F9108958F929F92AF921B
:10356000BF92CF92DF92EF92FF920F931F93CF9370
:10357000DF938C01FC014481C42FD0E09E01DE0169
:103580000E9420309B01AC010E9436306B017C010F
:10359000E0E2F0E0EC1BFD0BA5E5B0E09B01AC0127
:1035A0000E9436304B015C019F01DF010E94183000
:1035B0009B01AC010E9441309B01AC012C0D3D1DD3
:1035C0004E1D5F1DC501B4010E94F02FC22FD22FE6
:1035D0002A3228F4F3E02F9F900111240DC025E535
:1035E00030E02C1B3109C901880F991F280F391FA2
:1035F00037FF02C02F5F3F4F35952795C22FC095EB
:10360000F12C85E5E82EED1A80911201F816C8F428
:10361000F1FC02C08E2D01C08D2F909110012F2D35
:1036200030E0290F311DA901440F551F240F351F0C
:103630002E573D4F4C2F6091A8020E941F2BF394F0
:10364000E3CF0E945A2AF8018481811102C091E0DF
:1036500003C0803219F49FEF90930D0190910D01FA
:10366000890FF8018483DF91CF911F910F91FF9013
:10367000EF90DF90CF90BF90AF909F908F90089584
:103680001F93CF93DF93EC018C81811109C081E0FE
:103690008C831092800292E090930C0180930B0136
:1036A0008091100190911101891770F4E82FF0E0DA
:1036B0009F01220F331FE20FF31FEE57FD4F1182C0
:1036C000108212828F5FF0CF10E060911201161706
:1036D000C0F5E12FF0E070E0CF010E94DC2F2091D7
:1036E0001001820F20918002022E000C330B90E01B
:1036F000E217F307CCF020910C01022E000C330BE3
:103700002E173F078CF09C01220F331F820F931F4F
:103710009C012E573D4F4091A9026091A8028091D3
:10372000A7020E941F2B0BC0FC01EE0FFF1F8E0F84
:103730009F1FFC01EE57FD4F1182108212821F5F06
:10374000C4CF0E945A2A80910B0120918002280F39
:103750002093800290910C01980F90930C01191600
:103760005CF4022E000C330B4091120150E04150EA
:1037700051092417350734F0819580930B0181306E
:1037800009F41C82DF91CF911F9108957F928F924F
:103790009F92AF92BF92CF92DF92EF92FF920F93E0
:1037A0001F93CF93DF93EC018A8180FF03C0BB247A
:1037B000BA9402C0BB24B3948C8181110DC081E006
:1037C000B81206C080911201815080937F0202C01E
:1037D00010927F0281E08C83A12C4CE0842E90908B
:1037E0001201A91408F041C080911001CA2CD12CFB
:1037F0008601080F111DC801880F991F080F191F96
:103800000E571D4FF80111821082128234E0E32E10
:10381000F12C712C80917F02870D8D302CF0682D5A
:103820000E94BA2F892F02C087FD890D082E000C37
:10383000990BC816D90691F48091A9028E9DA0011A
:103840008F9D500D11245595479555954795980195
:103850006091A8028091A7020E941F2B7B0CF1E0CF
:10386000EF1AF108B9F6A394BACF0E945A2A8091B0
:103870007F0291E0B9120EC0811107C08091120140
:10388000815080937F021C820FC0815080937F0201
:10389000BC820AC090E001966091120170E00E9423
:1038A000DC2F80937F028C83DF91CF911F910F914A
:1038B000FF90EF90DF90CF90BF90AF909F908F9050
:1038C0007F900895FF920F931F93CF93DF93EC01A6
:1038D000F12C0FEF10E060911201F616F0F48091D8
:1038E00010012F2D30E0280F311DC901880F991FBD
:1038F000280F391F2E573D4F70E0C8010E94DC2F62
:10390000962F8C814091A9026091A802F99E800DAA
:1039100011240E941F2BF394DECF0E945A2A9A8111
:103920008C8190FF02C08F5F01C081508C83DF913A
:10393000CF911F910F91FF9008950F931F93CF93F5
:10394000DF9300D01F92CDB7DEB78C01809181024A
:1039500081110AC09E012F5F3F4F4FEF6FEF0E9412
:103960001F2B8A8180938102F8018481813051F07C
:1039700028F0823061F4409181020AC08091810276
:1039800040E007C06091810240E080E003C040E079
:1039900080E060E00E94A62AF801848190E0019610
:1039A00063E070E00E94DC2F84830F900F900F90F3
:1039B000DF91CF911F910F910895CF93DF93EC0189
:1039C000E6EAF2E0438162818C810E94B52B8C8112
:1039D0008F5F8C83DF91CF910895CF93DF93EC01BC
:1039E000EC81F0E0E75CFB4F4491E6EAF2E06281B3
:1039F00081810E94B52B8C818F5F8C83DF91CF9169
:103A000008952091E4003091E50095E64091EC00A6
:103A1000842F817040FF23C08091E80080FD1DC08D
:103A200080911C03882399F0853099F08091EB00F8
:103A300085FD11C04091E4005091E5002417350741
:103A400029F3915011F09A01E1CF84E0089582E0CA
:103A5000089583E0089581E0089580E008954091FD
:103A6000E80042FFDDCF089580911E0387FF11C05B
:103A70008091E80082FD05C080911C038111F8CF80
:103A800011C08091E8008B770BC080911C038823C4
:103A900049F08091E80080FFF8CF8091E8008E77B0
:103AA0008093E8000895982F973068F59093E90087
:103AB000981739F07091EC002091ED005091F000D2
:103AC00003C0242F762F50E021FD02C09F5FECCF72
:103AD0003091EB003E7F3093EB003091ED003D7F65
:103AE0003093ED003091EB0031603093EB00709338
:103AF000EC002093ED005093F0002091EE0027FDA4
:103B0000E5CF80E008958F708093E90081E008950B
:103B100020912403309125032617370748F06115BB
:103B2000710539F42091E8002E772093E80001C058
:103B3000B901FC0120E06115710579F180911C0348
:103B40008823F1F18530F1F18091E80083FD3CC0DC
:103B50008091E80082FD2EC08091E80080FFEBCFCD
:103B60002091F3008091F20090E0922B6115710595
:103B700051F08830910538F421912093F100615083
:103B800071090196F3CF21E0089709F020E08091B8
:103B9000E8008E778093E800CECF2111CFCF0AC006
:103BA00080911C03882361F0853061F08091E800EA
:103BB00083FD0AC08091E80082FFF2CF80E0089583
:103BC00082E0089583E0089581E0089578941F923B
:103BD0000F920FB60F9211248F939F93AF93BF93C1
:103BE0008091B7029091B802A091B902B091BA0247
:103BF0000196A11DB11D8093B7029093B802A093C6
:103C0000B902B093BA02BF91AF919F918F910F907B
:103C10000FBE0F901F9018959C014FB7F89480919C
:103C2000B7029091B802A091B902B091BA024FBF09
:103C3000821B930B08952FB7F8946091B70270918F
:103C4000B8028091B9029091BA022FBF08952FB7A0
:103C5000F8948091B7029091B802A091B902B09106
:103C6000BA022FBF08951F920F920FB60F92112420
:103C70008F939F93AF93BF938091B602811113C02E
:103C80008091B7029091B802A091B902B091BA02A6
:103C90004196A11DB11D8093B7029093B802A093E5
:103CA000B902B093BA02BF91AF919F918F910F90DB
:103CB0000FBE0F901F9018959C012A5F3F4FFC018B
:103CC0004281461301C01282019682179307B9F709
:103CD00008959C01FC0132969FEF80E041914617C8
:103CE00089F09F3F19F4411101C0982F8F5F8630F2
:103CF000A9F79F3F39F0F901E90FF11D97FDFA95FA
:103D00006283089508952091B4023091B502281776
:103D1000390771F09093B5028093B402E091B2023A
:103D2000F091B302309721F00084F185E02D0994E1
:103D300008952091B0023091B1022817390771F02F
:103D40009093B1028093B002E091B202F091B3027D
:103D5000309721F00680F781E02D099408950E94A4
:103D6000C70F882351F0E091B202F091B30230976F
:103D700021F00190F081E02D099480E00895EF9208
:103D8000FF920F93CF93DF93C42FD22FFC01828138
:103D90008823D1F04093AF020E94271E9093AE0279
:103DA0008093AD0280E28C0F883008F06DC0C77040
:103DB00081E001C0880FCA95EAF7DF91CF910F919A
:103DC000FF90EF900C94A9188091AF0248134BC05C
:103DD0008091AD029091AE020E940C1E883C91052C
:103DE00008F041C0CD17C9F080E28C0F883040F454
:103DF000C77081E001C0880FCA95EAF70E94A21837
:103E000080E28D0F883048F481E09D2F977001C0CB
:103E1000880F9A95EAF70E94A918093319F0E12C46
:103E2000F12C03C080E5E82EF12C802F0E940A19A6
:103E3000E114F10451F08FE99FE00197F1F700C020
:103E4000000091E0E91AF108F3CF802F0E94B31827
:103E500080E28D0F8830C0F4D77081E001C0880FF8
:103E6000DA95EAF70AC080E28C0F883068F4C770F0
:103E700081E001C0880FCA95EAF7DF91CF910F91D9
:103E8000FF90EF900C94A218DF91CF910F91FF90CB
:103E9000EF9008958F929F92AF92BF92CF92DF9250
:103EA000EF92FF920F931F93CF93DF93863048F4E6
:103EB000811108C0909180009F77909380002D9889
:103EC00006C085E090918000906890938000A0915A
:103ED0008600B0918700282F30E00E94203025E036
:103EE00030E040E050E00E94F02F0027122F232FF7
:103EF000342F012F122F232F33278091860090918A
:103F000087006CE070E00E94C82F6017710730F0E6
:103F1000C80169E070E00E94C82F5EC080918600F1
:103F200090918700E0908600F0908700E0918600F5
:103F3000F0918700C6E0D0E0BE010E94C82F060FB6
:103F4000171F211D311D4801590185E0880C991C5E
:103F5000AA1CBB1C8A95D1F7C701BE010E94C82FBD
:103F60006F01E12CF12CA7019601260F371F411D8F
:103F7000511DC501B4010E94F02F69017A01E09141
:103F80008600F0918700CA01B9010E949E2F9B0113
:103F9000AC01DF010E9436309B01AC01C701B601C4
:103FA0000E949E2FDC01CB012FE0B695A795979537
:103FB00087952A95D1F7009186001091870020E01F
:103FC00030E0081719072A073B0728F4609186009C
:103FD00070918700CB01BC017093890060938800C9
:103FE000DF91CF911F910F91FF90EF90DF90CF90D5
:103FF000BF90AF909F908F900895682F86E090E0DB
:104000000C946A2F863008F085E09091AC0297708E
:10401000282F220F220F220F922B9093AC02987F11
:1040200021E009F420E09091AC0220FB90F99093FC
:10403000AC020E944A1F8091AC020C94FD1F80913B
:10404000AC0280FD1FC081608093AC02813019F406
:1040500089E08093AC028091AC020E94FD1F8091A8
:10406000AB0280FF08C089E395E09F938F930E9485
:10407000EB050F900F908091AC0286958695869502
:104080000C944A1F089580E090E00E94642F893EBE
:104090009E4F51F00E94DD138091AC0284708962C2
:1040A0008093AC020E94FD1F86E090E00E94562F94
:1040B0008093AC02282F26952695269530E0263051
:1040C000310524F0877088628093AC028091AC0245
:1040D00080FF04C086958695869501C080E00C948B
:1040E0004A1F9091A60290FF04C09695981740F041
:1040F00003C0811105C090E0961710F40C948A2D2E
:1041000061E00C94062D882311F0FA0101C0FB0137
:10411000099410927D0280917E02846080937E02D9
:104120008091AB0280FF08C080E294E09F938F9360
:104130000E94EB050F900F9008956091A60266957E
:1041400070E04BE050E080E091E00E944930892B24
:1041500019F481E080937D020E943A1290937702D5
:104160008093760280917E02846080937E028091AB
:10417000AB0280FF08C087E094E09F938F930E947A
:10418000EB050F900F9008950F931F93CF93DF933C
:10419000CDB7DEB728970FB6F894DEBF0FBECDBF00
:1041A00085E0E6EAF2E0DE01119601900D928A9533
:1041B000E1F780917C0290917D02A0917E028E8336
:1041C0009F83A88741E08885811101C040E008E015
:1041D00010E09E012F5F3F4F6AED72E084E00E9485
:1041E000690F811110927E0228960FB6F894DEBFF7
:1041F0000FBECDBFDF91CF911F910F9108950F9307
:104200001F93CF93DF931F92CDB7DEB78091AC029F
:1042100080FF04C086958695869501C080E08983DD
:1042200041E09091C902981301C040E001E010E024
:104230009E012F5F3F4F66ED72E083E00E94690FA1
:104240000F90DF91CF911F910F910895CF93DF933E
:1042500000D000D0CDB7DEB74091D2025091D3024A
:104260006091D4027091D5022FB7F8948091B70273
:104270009091B802A091B902B091BA022FBF841BED
:10428000950BA60BB70B84369105A105B10570F10E
:104290000E941F12DC01CB010296A11DB11D898372
:1042A0009A83AB83BC838091240190912501815432
:1042B0009D4F4091230150E04530510510F044E0FE
:1042C00050E0BE016F5F7F4F0E94633082E090E05C
:1042D0000E94DB2E882359F00E941B1E6093D2029D
:1042E0007093D3028093D4029093D50281E00F9013
:1042F0000F900F900F90DF91CF910895CF93DF93A0
:10430000CDB7DEB72D970FB6F894DEBF0FBECDBF89
:1043100084B7877F84BF0FB6F894A895809160001A
:10432000886180936000109260000FBE90E080E88A
:104330000FB6F89480936100909361000FBE85B72B
:10434000806885BF85B7806885BF8CEA99E19093C6
:10435000E7018093E6010E94AF280E94CE28809159
:10436000E20084608093E200789480911C038823AB
:10437000A1F01091E9001F709091EC00892F8170DD
:1043800090FD80E8182B1092E9008091E80083FDF1
:104390000E949D251F701093E90082E084BD93E088
:1043A00095BD9AEF97BD80936E001092DE02109239
:1043B000DF021092E0021092E1020E94C70F809388
:1043C0003B0180913B01882321F010920E0186E091
:1043D00003C086E080930E0180930F010E94C70FF7
:1043E00081110E94EF2D80913B0180913B01811151
:1043F00002C095E001C090E09093ED0285E0891B3A
:104400008093EC0207EA11E0D8018D918D018F3F76
:1044100011F00E94EA0FB1E00C3A1B07A9F70CEA71
:1044200011E0F80181918F018F3F11F00E94EA0F96
:10443000F1E0023B1F07A9F78AE0E5EFF2E0DF01B8
:10444000282F1D922A95E9F7E2EEF2E0DF011D9296
:104450008A95E9F780E090E00E94642F893E9E4FA4
:1044600011F00E94DD1382E090E00E94562F8093AD
:10447000AB020E94CC139093F3028093F20283E08C
:1044800090E00E94562F682F70E080E090E00E943C
:104490008D18259A2D9882E88093800089E1809379
:1044A00081008FEF9FEF90938700809386000E949A
:1044B00043200E9443208091F4028111EAC0809140
:1044C000AB0280FF08C08DE896E09F938F930E9417
:1044D000EB050F900F908091AB0280FF08C087E73B
:1044E00096E09F938F930E94EB050F900F9080E0D2
:1044F00090E00E94642F893E9E4F81F08091AB0234
:1045000080FF08C08FE496E09F938F930E94EB0595
:104510000F900F900E94DD130E94082B88E090E01E
:104520000E945E2F6093A6027093A7028093A80258
:104530009093A90280917E02836080937E026E7FB9
:10454000D1F48091AB0280FF08C086E096E09F9393
:104550008F930E94EB050F900F900E94082B88E02C
:1045600090E00E945E2F6093A6027093A702809352
:10457000A8029093A9020E94C12A8091AB0280FFF9
:1045800008C08DEE95E09F938F930E94EB050F90EE
:104590000F908091AB0280FF0FC08091A6028170C6
:1045A0001F928F9380ED95E09F938F930E94EB0570
:1045B0000F900F900F900F908091AB0280FF0FC073
:1045C0008091A60286951F928F9385EB95E09F932D
:1045D0008F930E94EB050F900F900F900F9080919A
:1045E000AB0280FF0EC08091A7021F928F938BE9D0
:1045F00095E09F938F930E94EB050F900F900F9083
:104600000F908091AB0280FF0EC08091A8021F9294
:104610008F9381E895E09F938F930E94EB050F9015
:104620000F900F900F908091AB0280FF0EC0809191
:10463000A9021F928F9387E695E09F938F930E9424
:10464000EB050F900F900F900F908091AB0280FFC1
:104650000EC08091AA021F928F938BE495E09F93E6
:104660008F930E94EB050F900F900F900F90109278
:104670007D0280917E02846080937E028091A602FA
:1046800080FF04C060E086950E94062D81E0809343
:10469000F4020E94C70F811102C00E94F22D8CE328
:1046A00091E09093B3028093B20218E1212E312C55
:1046B00002EB402E06E0502E8AEA682E86E0782E25
:1046C00080911C03853009F04BC084EA96E00E947B
:1046D000520500E112E180911C03853009F03AC0D7
:1046E00080911C03843029F180E00E944A1F1092BF
:1046F000B602F0E40FB6F894A895209260000FBEC1
:10470000F093600083B7817F846083BF83B781604B
:1047100083BF7894889583B78E7F83BF0FB6F89454
:10472000A89580916000886180936000109260007D
:104730000FBE80911B03882309F4CDCF0E94011086
:10474000E5EFF2E0819181119FC122E0EF3FF20796
:10475000C9F7C1CF0E9497180E9443200E94AF1E44
:104760000E94011081110E941B1EAFEFCA2EA2E011
:10477000DA2EB5EFAB2EB2E0BB2E00E010E00D87D5
:10478000D501ED915D01EC87D6018D916D01E82792
:10479000EB87E11116C00F5F1F4F0A30110579F743
:1047A0008FEF8E838F8318860E94271E8160782F5B
:1047B0009A8789874E815F8168858A850E94F40582
:1047C00060C08091AB0281FD04C0E12CFF24F39412
:1047D00036C087EB96E00E945205F5EF8F2EF2E08F
:1047E0009F2EE12CF12CFF92EF925F924F920E944C
:1047F000EB058FEA96E00E945205F40181914F018A
:104800000E94180E1F928F937F926F920E94EB0569
:1048100088EA96E00E945205FFEFEF1AFF0A0FB6F2
:10482000F894DEBF0FBECDBF5AE0E516F104D9F60D
:10483000CCCFE394FF0C96E0E91609F4ACCF8B855E
:104840008F21B9F30E94C70F8823A9F0E9828D85D3
:104850008A839C859F2181E009F480E08B830E94FC
:10486000271E8160782F9D838C8349815A816B81BB
:104870008D810E94F405F801E150FD4F8081F826FA
:10488000F0820E94C70F80917D02882309F4CFC077
:1048900080917C02E091A602E695E81BE093780205
:1048A000823059F4F0E0E350F94FE4910E2F10E01C
:1048B000EDEEEE2EECE1FE2E59C0863059F4F0E01C
:1048C000E650F94FE4910E2F10E07DEDE72E7CE1EC
:1048D000F72E4CC0893061F4E695F0E0E950F94FCD
:1048E000E4910E2F10E062E6E62E6CE1F62E3EC05B
:1048F0008F3061F4E695F0E0EC50F94FE4910E2F23
:1049000010E056ECE52E5BE1F52E30C0853159F410
:10491000F0E0EF50F94FE4910E2F10E040E4E42E68
:104920004BE1F42E23C08831A1F0833249F4EFEE3D
:10493000F6E0059114913DE9E32E3CE1F32E16C01B
:10494000843271F404EF11E02EE6E22E2AE1F22E19
:104950000DC008E210E09DEAE92E9AE1F92E06C0AA
:1049600000ED17E087EAE82E89E1F82E80917902C0
:10497000882361F0109279020E943A129093770294
:104980008093760210927B0210927A020E943A1271
:104990002091760230917702DC01A21BB30B9D01BE
:1049A0002F3F3F4708F043C020910B03222311F112
:1049B00010920B032091090330910A03821B930B81
:1049C0008F3F9F47B8F4205D3A4830930A03209305
:1049D00009038091AB0280FF08C086EC96E09F93AC
:1049E0008F930E94EB050F900F9080917E0288605C
:1049F00080937E02C0907A02D0907B02E091760292
:104A0000F09177020E0F1F1F10937702009376022A
:104A100086E792E0F701099580917A0290917B02F6
:104A2000892B29F4CD2819F081E080930B030E9493
:104A3000AF1E182F80910C03181709F441CE109364
:104A40000C038091AB0282FF3BCE80FF04C088E064
:104A500097E00E9452058091AB0280FF0CC01F922C
:104A60001F9383E097E09F938F930E94EB050F9035
:104A70000F900F900F908091AB0280FF21CE81E0CC
:104A800097E00E9452051CCE09BD19BD09B400FE75
:104A9000FDCF8091D8008F7D8093D8008091E00079
:104AA00082608093E0008091E00081FDFCCF0E9455
:104AB000971811CEFC01AC014B5F5F4F8FEF91E374
:104AC0002191822728E030E087FF03C0880F8927E3
:104AD00001C0880F21503109B9F7E417F50781F7B4
:104AE0000895EF92FF920F931F93CF93DF937C0172
:104AF0008B010E94011D811119C0E70101151105EB
:104B0000A1F08091E80085FD0AC08091E8008E77D1
:104B10008093E8000E94011D882381F307C08991DA
:104B20008093F10001501109E9CF80E0DF91CF912E
:104B30001F910F91FF90EF9008951F93CF93DF93F4
:104B4000CDB7DEB7AA970FB6F894DEBF0FBECDBFC4
:104B5000EEE1F3E08091F100819343E0E632F40767
:104B6000C9F780911F03833009F461C030F48130AC
:104B700071F0823009F49BC0B2C08A3009F487C05A
:104B80008B3009F46CC0893009F0A9C020C0809135
:104B90001E03813A09F0A3C08091E800877F8093CB
:104BA000E8008091220390912303892B21F468E08F
:104BB00082E193E003C060E080E090E070E00E945A
:104BC000881D8091E8008B778093E80088C08091F1
:104BD0001E03813209F083C0809122039091230348
:104BE000029708F07CC08091E800877F8093E800FE
:104BF0008091E80082FD05C080911C038111F8CFEF
:104C00006EC02091F3008091F20090E0922B029709
:104C100031F48091F100813011F0863021F48091DF
:104C2000F100809311038091E8008B7754C080914C
:104C30001E03813A09F053C080912203909123030F
:104C4000892B09F04CC08091E800877F8093E800B1
:104C50008091E80080FFFCCF8091480137C08091AF
:104C60001E038132E1F58091220390912303892B69
:104C7000B1F58091E800877F8093E8000E94341DA1
:104C800080912003809348010E94971828C080914A
:104C90001E03813221F58091E800877F8093E80030
:104CA0000E94341D809121038093100318C08091CD
:104CB0001E03813AA1F48091E800877F8093E80089
:104CC0008091E80080FFFCCF809110038093F10079
:104CD0008091E8008E778093E8000E94341D8091D7
:104CE000E80083FFDAC180911E0390911F03492FD2
:104CF00050E04A30510508F0D0C1FA01EE59FF4F9B
:104D00000C941230803821F0823809F0C6C108C0F6
:104D100080911A0390911B03992389F082600FC040
:104D2000809122038F70873008F0B7C18093E9002B
:104D30008091EB0085FB882780F91092E900909123
:104D4000E800977F9093E8008093F1001092F100C3
:104D500070C1282F2D7F09F0A0C1882319F082305F
:104D600061F09BC180912003813009F096C193309E
:104D700009F080E080931B032EC0809120038111F5
:104D80002AC0809122038F702FEF280F263008F061
:104D900084C18093E9002091EB0020FF1CC0933078
:104DA00021F48091EB00806214C09091EB0090613F
:104DB0009093EB0021E030E0A90102C0440F551FA1
:104DC0008A95E2F74093EA001092EA008091EB00A6
:104DD00088608093EB001092E9008091E800877F63
:104DE0008093E8000E94341D58C1811156C1109172
:104DF00020031F778091E3008078812B8093E3006C
:104E00008091E800877F8093E8000E94341D8091A4
:104E1000E80080FFFCCF8091E30080688093E3008E
:104E2000111102C082E001C083E080931C0335C1F0
:104E30008058823008F031C1209120033091210345
:104E40002C3D53E0350779F583E08A838AE2898334
:104E50004FB7F894DE01139620E03EE051E2E32FD5
:104E6000F0E050935700E49120FF03C0E295EF700B
:104E70003F5FEF708E2F90E0EA3010F0C79601C0D0
:104E8000C0968D939D932F5F243149F74FBF80913A
:104E9000E800877F8093E8006AE270E0CE01019627
:104EA0000E94881DB5C08091220390912303432F57
:104EB000552743305105A9F068F44130510509F4F4
:104EC000FBC04230510509F0E8C08BE590E0EBEB08
:104ED000F7E04BC04132510529F14232510589F1C9
:104EE000DCC0C901992781309105A1F058F00297E3
:104EF00009F0D3C0E8E2F8E0E4918E2F90E0E8E218
:104F0000F8E030C0E0E6F8E0E4918E2F90E0E0E6D3
:104F1000F8E028C0E0E5F8E0E4918E2F90E0E0E5CD
:104F2000F8E020C08330910508F0B7C0880F991FC2
:104F3000FC01E554FE4F0190F081E02D89E090E006
:104F400014C08330910508F0A8C0FC01EE0FFF1FCC
:104F5000EB54FE4F0190F081E02DDC01AE54BE4FCA
:104F60008C9190E0009709F498C02091E800277F89
:104F70002093E800209124033091250382179307A2
:104F800008F49C0140E02115310589F180911C0352
:104F9000882309F43DC08530D9F18091E80083FD74
:104FA00037C08091E80082FD2FC08091E80080FF2B
:104FB000EACF4091F3008091F20090E0942B21150C
:104FC000310559F08830910540F444914093F10047
:104FD0003196215031090196F2CF41E0089709F04E
:104FE00040E08091E8008E778093E800CCCF4111BB
:104FF000CDCF0AC080911C03882351F0853041F049
:105000008091E80083FD04C08091E80082FFF2CF28
:105010008091E8008B778093E8003FC08038E9F505
:105020008091E800877F8093E80080911D03809342
:10503000F1008091E8008E77D3CE81112EC080914F
:10504000200390912103992702973CF58091E80075
:10505000877F8093E8001091200310931D030E9426
:10506000341D111106C08091E30087FD02C081E06C
:1050700001C084E080931C0342E061EC81E00E9467
:10508000531D42E261EC82E00E94531D42E261EC5A
:1050900083E00E94531D80911C038091E80083FFF0
:1050A00010C08091E800877F8093E8008091EB003A
:1050B00080628093EB0005C082E190E0E6E1F8E0D9
:1050C00054CFAA960FB6F894DEBF0FBECDBFDF91C6
:1050D000CF911F9108951F920F920FB60F92112436
:1050E0002F933F934F935F936F937F938F939F93F0
:1050F000AF93BF93CF93DF93EF93FF93C091E900FA
:10510000CF708091EC00D82FD17080FDD0E8109244
:10511000E9008091F000877F8093F00078940E94EE
:105120009D251092E9008091F00088608093F00046
:10513000CD2BCF70C093E900FF91EF91DF91CF911C
:10514000BF91AF919F918F917F916F915F914F919F
:105150003F912F910F900FBE0F901F901895E8ED83
:10516000F0E080818E7F80831092E2001092DA005E
:105170001092E100A0EEB0E08C9181608C93808170
:105180008F77808319BCA7EDB0E08C918E7F8C93D4
:1051900080818F7E808310920F030895CF92DF92DB
:1051A000EF92FF920F931F93CF93DF93C8EDD0E060
:1051B00088818F7E8883E7EDF0E080818160808345
:1051C00084E082BF81E080930F0388818E7F888393
:1051D00002EE10E0F80110821092DA0081EEC82E83
:1051E000D12CF601108288818F778883888180682E
:1051F000888388818F7D888319BC10921C0310924C
:105200001D0310921B0310921A0390EEE92EF12C4D
:10521000F70180818B7F808388818160888342E071
:1052200060E080E00E94531DF60180818E7F8083C4
:10523000F801808181608083808188608083F701AC
:1052400080818E7F8083888180618883DF91CF9188
:105250001F910F91FF90EF90DF90CF9008951F92D4
:105260000F920FB60F9211242F933F934F935F939A
:105270006F937F938F939F93AF93BF93EF93FF931E
:105280008091E10082FF49C08091E20082FF45C029
:105290008091E1008B7F8093E10020910E032F5FCE
:1052A000822F62E30E94AE2F992319F020930E0300
:1052B00034C010920E0380910D03882371F1809108
:1052C0001C03843041F58091E9008F702091EC003F
:1052D000922F917020FD90E8892B93E09093E90044
:1052E0009091EB0090FF14C09091EE0097FF10C0DA
:1052F0009091E80095FF03C01092F100F9CF9091D2
:10530000E80090FF05C09091E8009E779093E80038
:105310008F708093E90010920D038091DA0080FF76
:1053200032C08091D80080FF2EC08091DA008E7F3D
:105330008093DA008091D90080FF1CC080E189BD94
:1053400082E189BD09B400FEFDCF81E080931C039A
:1053500087EA97E00E94520580910F03811113C0E4
:105360000E94AF280E94CE288091E2008460809342
:10537000E20009C019BC10921C038BEA97E00E945E
:10538000520510920F038091E10080FF1BC08091B5
:10539000E20080FF17C08091E2008E7F8093E200E0
:1053A0008091E20080618093E2008091D800806269
:1053B0008093D80019BC85E080931C038FEA97E0A6
:1053C0000E9452058091E10084FF34C08091E20088
:1053D00084FF30C080E189BD82E189BD09B400FE4F
:1053E000FDCF8091D8008F7D8093D8008091E1001F
:1053F0008F7E8093E1008091E2008F7E8093E200B7
:105400008091E20081608093E20080911D038823F7
:1054100011F084E007C08091E30087FD02C081E0C5
:1054200001C083E080931C0383EB97E00E94520548
:1054300080911C038091E10083FF2BC08091E200EA
:1054400083FF27C08091E100877F8093E10082E0A5
:1054500080931C0310921D038091E1008E7F809346
:10546000E1008091E2008E7F8093E2008091E20073
:1054700080618093E20042E060E080E00E94531D82
:105480008091F00088608093F00087EB97E00E94A5
:105490005205FF91EF91BF91AF919F918F917F91B5
:1054A0006F915F914F913F912F910F900FBE0F9091
:1054B0001F90189530910F018091A60280FF16C0B1
:1054C000E0910E0163E0E69FF0011124EE57FD4FDD
:1054D000539A8BB1877F9BB198602FB7F894AF0137
:1054E00063E0369F400D511D112414C080911001BE
:1054F00090911101891720F7E82FF0E0AF01440FD8
:10550000551FE40FF51FEE57FD4F118210821282D6
:105510008F5FF0CFE417F50789F0319168E09BB910
:10552000000000C037FF8BB9330F000000C000C07F
:1055300000C08BB900C06A9591F7ECCF2FBF8FE503
:1055400094E00197F1F700C0000008959091A60241
:1055500090FF16C09091100120911101921770F4E4
:10556000E92FF0E0DF01AA0FBB1FEA0FFB1FEE5788
:10557000FD4F8183608342839F5FF0CF0C945A2A52
:1055800008958091A602282F269530E02115310537
:1055900019F48170826005C02532310524F08170D4
:1055A00088648093A6020895CF92DF92EF92FF92D3
:1055B0006B017C010E94C12AB701A60188E090E03E
:1055C000FF90EF90DF90CF900C947C2F8091AA02F7
:1055D000882319F081508093AA026091A6027091ED
:1055E000A7028091A8029091A9020C94D42A8091DC
:1055F000AA02833018F48F5F8093AA026091A602FA
:105600007091A7028091A8029091A9020C94D42ACB
:10561000E6EAF2E083E0808311828FEF8283838366
:105620001482ACE7B2E012968C91129783601296C6
:105630008C9360817181828193810C94D42AAF9282
:10564000BF92CF92DF92EF92FF920F931F93CF936F
:10565000DF93E82EF62EE901E42FF0E0611106C099
:10566000EC59F74FE4914E2F2E2F71C0062F10E00A
:10567000EC59F74F4491F42FC42ED12C26E0829F91
:10568000C00111242FEF30E0B9010E94C82F5BEA5E
:105690005603C001579F900D11248E0D911D8E0D44
:1056A000911D582F550F580FD901A01BB10BAC9D60
:1056B000C001AD9D900DBC9D900D1124E92FF59E6C
:1056C000D0011124AB2FBB277901EA1AFB0AEC9C0D
:1056D000D001ED9CB00DFC9CB00D11245901A51A10
:1056E000B108A09E7001A19EF00CB09EF00C112498
:1056F000EF2CFF242E193F092C9D80012D9D100DAC
:105700003C9D100D1124212F6230710591F048F459
:1057100061157105E1F061307105B9F4242F4B2F4B
:1057200016C06430710569F040F06630710579F09B
:105730000CC0242F492FE12F0AC0492FEF2F2B2F08
:1057400006C0292FE42F412F02C0292FEB2F4983B8
:105750002883EA83DF91CF911F910F91FF90EF9003
:10576000DF90CF90BF90AF900895CF93DF9300D09C
:105770001F92CDB7DEB79091A60290FF0AC09E019E
:105780002F5F3F4F0E941F2B4B8169818A810E94AE
:10579000A62A0F900F900F90DF91CF9108954F920E
:1057A0005F926F927F928F929F92AF92BF92CF92B1
:1057B000DF92EF92FF920F931F93CF93DF9300D06E
:1057C0001F92CDB7DEB7F82ED62EE42E622E909122
:1057D000A60290FFC5C0E92FE695AE2FB0E0AF530B
:1057E000BE4F8C9180937C029E7F923061F49E012B
:1057F0002F5F3F4F8F2D0E941F2B4B8169818A8124
:105800000E94A62A62C0823019F4E090A9025DC00D
:10581000863019F4F090A70258C08930D9F3893145
:1058200009F053C0E9518E2F8170782E81E0C72C8A
:10583000C826E695F0E0E85BF54FA590B490412CC2
:10584000BB2491E2892E9AE0992E609112014616AE
:10585000D0F5042D10E00A9DC0010B9D900D1A9DFE
:10586000900D112470E00E94C82F5F2C711002C0AF
:10587000560E01C0561A8091AB0280FF11C0BF9234
:10588000AF921F92CF921F925F921F924F929F9260
:105890008F920E94EB050FB6F894DEBF0FBECDBF0E
:1058A00080911001080F111D9801220F331F020F64
:1058B000131F98012E573D4F4E2D6D2D852D0E94A3
:1058C0001F2B4394C2CF0E945A2A8091A702F8123C
:1058D00008C08091A802D81204C08091A902E816DD
:1058E00029F080917E02826080937E02F092A7026E
:1058F000D092A802E092A9026620E9F06091A60287
:105900007091A7028091A8029091A9020E94D42AC6
:105910008091AB0280FF24C08091A9021F928F93D7
:105920008091A8021F928F938091A7021F928F935C
:105930008CEF99E00CC08091AB0280FF11C01F92E8
:10594000EF921F92DF921F92FF9285ED99E09F9355
:105950008F930E94EB050FB6F894DEBF0FBECDBF4C
:105960000F900F900F90DF91CF911F910F91FF90AB
:10597000EF90DF90CF90BF90AF909F908F907F90EF
:105980006F905F904F900895E6EAF2E0438121E145
:10599000421B08F440E021E0628181810C94CF2B0E
:1059A000E6EAF2E0438121E1420F08F44FEF21E003
:1059B000628181810C94CF2BE6EAF2E0628121E1E1
:1059C000621B08F460E021E0438181810C94CF2BBD
:1059D000E6EAF2E0628121E1620F08F46FEF21E074
:1059E000438181810C94CF2BE6EAF2E0818121E0B2
:1059F0004381628188500C94CF2BE6EAF2E08181EA
:105A000021E043816281885F0C94CF2B9091A602A4
:105A100090FF5AC09170811102C0926006C0853219
:105A200010F0986402C0880F982B9093A602809182
:105A30007E02816080937E026623B1F06091A602AF
:105A40007091A7028091A8029091A9020E94D42A85
:105A50008091AB0280FF1BC08091A60286951F92A9
:105A60008F9382E899E00BC08091AB0280FF0FC05A
:105A70008091A60286951F928F9384E699E09F936A
:105A80008F930E94EB050F900F900F900F906091F5
:105A9000A602669570E04BE050E080E091E00E9445
:105AA0004930892B19F00E94892002C00E949D2054
:105AB00081E08093790220E04091A9026091A802E0
:105AC0008091A7020C94CF2B08958091A60281604B
:105AD0008093A6028091AB0280FF0DC01F9281E0EF
